:02000000632972
:100006008312031386140615061086118617061327
:060016000612861208002C
:0E001C008312031386168613061206130800BD
:10002A00831203130611061086118610861706120C
:06003A0086120613080007
:1000400083120313061186108615061486170613ED
:06005000061286120800F2
:0E005600831203130616861386120613080083
:0E006400831203130617861306128612080075
:0E007200831203138617061286120613080067
:1000800083120313861586140611061086170613AD
:06009000061286120800B2
:100096008312031306150614861186108617061397
:0600A6000612861208009C
:0E00AC008312031321088A0020088200080036
:1000BA00831203130611061086118610861306137F
:0600CA0006128612080078
:1000D00056208A110A128000840AA00A0319A10A74
:0800E000F003031D682808006D
:1000E80083120313881A9A28071C7C28032099284E
:1000F800871C802820209928071D84284B209928B0
:10010800871D882840209928081E8C282B2099288C
:10011800871E90280E209928871F9428392099280F
:0E012800071F9828322099285D2074280800AF
:1001360083120313881E622988192929081CB228EC
:10014600881CB228081DB228081CB128881CB128B2
:10015600081DB12815202B203920A7282829081882
:10016600C328881CC328081DC3280818C228881C51
:10017600C228081DC22803202B203920B828282988
:10018600081CD4288818D428081DD428081CD3286D
:100196008818D328081DD3284B202B203920C9289E
:1001A60028290818E5288818E528081DE5280818CC
:1001B600E4288818E428081DE42803202B20392089
:1001C600DA282829081CF628881CF6280819F62893
:1001D600081CF528881CF5280819F52820202B204E
:1001E6003920EB28282908180729881C0729081907
:1001F600072908180629881C0629081906294B20EC
:100206002B203920FC282829081C18298818182989
:1002160008191829881C172988181729081D17294D
:1002260020202B2039200D2928290818282988184C
:100236002829081928290818282988182829081972
:10024600282915202B2039201E29612988195F2984
:10025600881D5E2915202B2039201030FB003930EF
:10026600FC000D30FD00FD0B3629FC0B3629FB0B7F
:1002760036290000000032201030FB003930FC0027
:100286000D30FD00FD0B4529FC0B4529FB0B4529CF
:100296000000000040201030FB003930FC000D301B
:1002A600FD00FD0B5429FC0B5429FB0B54290000BF
:1002B60000005D2062296129152039209B2808004D
:1002C6000730831603139F0007309C008601013018
:1002D60087003F3088008312860187018801881EC7
:1002E60076299B207929881A7929742072297A29F6
:02400E004A2F37
:00000001FF
